{
  "address": "0x7470607c7e404596d9b0AAe5973Bdb0a80fd7B74",
  "abi": [
    {
      "inputs": [],
      "stateMutability": "nonpayable",
      "type": "constructor"
    },
    {
      "inputs": [
        {
          "internalType": "address",
          "name": "target",
          "type": "address"
        }
      ],
      "name": "AddressEmptyCode",
      "type": "error"
    },
    {
      "inputs": [
        {
          "internalType": "address",
          "name": "implementation",
          "type": "address"
        }
      ],
      "name": "ERC1967InvalidImplementation",
      "type": "error"
    },
    {
      "inputs": [],
      "name": "ERC1967NonPayable",
      "type": "error"
    },
    {
      "inputs": [],
      "name": "FailedCall",
      "type": "error"
    },
    {
      "inputs": [],
      "name": "InvalidInitialization",
      "type": "error"
    },
    {
      "inputs": [],
      "name": "NotInitializing",
      "type": "error"
    },
    {
      "inputs": [],
      "name": "ReentrancyGuardReentrantCall",
      "type": "error"
    },
    {
      "inputs": [],
      "name": "UUPSUnauthorizedCallContext",
      "type": "error"
    },
    {
      "inputs": [
        {
          "internalType": "bytes32",
          "name": "slot",
          "type": "bytes32"
        }
      ],
      "name": "UUPSUnsupportedProxiableUUID",
      "type": "error"
    },
    {
      "anonymous": false,
      "inputs": [
        {
          "indexed": false,
          "internalType": "uint64",
          "name": "version",
          "type": "uint64"
        }
      ],
      "name": "Initialized",
      "type": "event"
    },
    {
      "anonymous": false,
      "inputs": [
        {
          "indexed": true,
          "internalType": "address",
          "name": "implementation",
          "type": "address"
        }
      ],
      "name": "Upgraded",
      "type": "event"
    },
    {
      "inputs": [],
      "name": "UPGRADE_INTERFACE_VERSION",
      "outputs": [
        {
          "internalType": "string",
          "name": "",
          "type": "string"
        }
      ],
      "stateMutability": "view",
      "type": "function"
    },
    {
      "inputs": [],
      "name": "addressBook",
      "outputs": [
        {
          "internalType": "contract AddressBook",
          "name": "",
          "type": "address"
        }
      ],
      "stateMutability": "view",
      "type": "function"
    },
    {
      "inputs": [
        {
          "internalType": "uint256",
          "name": "proposalId",
          "type": "uint256"
        }
      ],
      "name": "cancel",
      "outputs": [],
      "stateMutability": "nonpayable",
      "type": "function"
    },
    {
      "inputs": [
        {
          "internalType": "uint256",
          "name": "proposalId",
          "type": "uint256"
        }
      ],
      "name": "getProposal",
      "outputs": [
        {
          "components": [
            {
              "internalType": "address",
              "name": "proposer",
              "type": "address"
            },
            {
              "internalType": "address",
              "name": "target",
              "type": "address"
            },
            {
              "internalType": "bytes",
              "name": "data",
              "type": "bytes"
            },
            {
              "internalType": "string",
              "name": "description",
              "type": "string"
            },
            {
              "internalType": "uint256",
              "name": "votesFor",
              "type": "uint256"
            },
            {
              "internalType": "uint256",
              "name": "votesAgainst",
              "type": "uint256"
            },
            {
              "internalType": "uint256",
              "name": "endTime",
              "type": "uint256"
            },
            {
              "internalType": "bool",
              "name": "executed",
              "type": "bool"
            },
            {
              "internalType": "bool",
              "name": "cancelled",
              "type": "bool"
            }
          ],
          "internalType": "struct Governance.Proposal",
          "name": "",
          "type": "tuple"
        }
      ],
      "stateMutability": "view",
      "type": "function"
    },
    {
      "inputs": [
        {
          "internalType": "uint256",
          "name": "proposalId",
          "type": "uint256"
        },
        {
          "internalType": "address",
          "name": "voter",
          "type": "address"
        }
      ],
      "name": "getReceipt",
      "outputs": [
        {
          "components": [
            {
              "internalType": "bool",
              "name": "hasVoted",
              "type": "bool"
            },
            {
              "internalType": "bool",
              "name": "support",
              "type": "bool"
            },
            {
              "internalType": "uint256",
              "name": "votes",
              "type": "uint256"
            }
          ],
          "internalType": "struct Governance.Receipt",
          "name": "",
          "type": "tuple"
        }
      ],
      "stateMutability": "view",
      "type": "function"
    },
    {
      "inputs": [],
      "name": "implementationVersion",
      "outputs": [
        {
          "internalType": "uint256",
          "name": "",
          "type": "uint256"
        }
      ],
      "stateMutability": "pure",
      "type": "function"
    },
    {
      "inputs": [
        {
          "internalType": "address",
          "name": "initialAddressBook",
          "type": "address"
        }
      ],
      "name": "initialize",
      "outputs": [],
      "stateMutability": "nonpayable",
      "type": "function"
    },
    {
      "inputs": [
        {
          "internalType": "uint256",
          "name": "proposalId",
          "type": "uint256"
        }
      ],
      "name": "isActive",
      "outputs": [
        {
          "internalType": "bool",
          "name": "",
          "type": "bool"
        }
      ],
      "stateMutability": "view",
      "type": "function"
    },
    {
      "inputs": [],
      "name": "proposalCount",
      "outputs": [
        {
          "internalType": "uint256",
          "name": "",
          "type": "uint256"
        }
      ],
      "stateMutability": "view",
      "type": "function"
    },
    {
      "inputs": [
        {
          "internalType": "uint256",
          "name": "",
          "type": "uint256"
        }
      ],
      "name": "proposals",
      "outputs": [
        {
          "internalType": "address",
          "name": "proposer",
          "type": "address"
        },
        {
          "internalType": "address",
          "name": "target",
          "type": "address"
        },
        {
          "internalType": "bytes",
          "name": "data",
          "type": "bytes"
        },
        {
          "internalType": "string",
          "name": "description",
          "type": "string"
        },
        {
          "internalType": "uint256",
          "name": "votesFor",
          "type": "uint256"
        },
        {
          "internalType": "uint256",
          "name": "votesAgainst",
          "type": "uint256"
        },
        {
          "internalType": "uint256",
          "name": "endTime",
          "type": "uint256"
        },
        {
          "internalType": "bool",
          "name": "executed",
          "type": "bool"
        },
        {
          "internalType": "bool",
          "name": "cancelled",
          "type": "bool"
        }
      ],
      "stateMutability": "view",
      "type": "function"
    },
    {
      "inputs": [
        {
          "internalType": "address",
          "name": "target",
          "type": "address"
        },
        {
          "internalType": "bytes",
          "name": "data",
          "type": "bytes"
        },
        {
          "internalType": "string",
          "name": "description",
          "type": "string"
        }
      ],
      "name": "propose",
      "outputs": [
        {
          "internalType": "uint256",
          "name": "proposalId",
          "type": "uint256"
        }
      ],
      "stateMutability": "nonpayable",
      "type": "function"
    },
    {
      "inputs": [],
      "name": "proxiableUUID",
      "outputs": [
        {
          "internalType": "bytes32",
          "name": "",
          "type": "bytes32"
        }
      ],
      "stateMutability": "view",
      "type": "function"
    },
    {
      "inputs": [
        {
          "internalType": "uint256",
          "name": "",
          "type": "uint256"
        },
        {
          "internalType": "address",
          "name": "",
          "type": "address"
        }
      ],
      "name": "receipts",
      "outputs": [
        {
          "internalType": "bool",
          "name": "hasVoted",
          "type": "bool"
        },
        {
          "internalType": "bool",
          "name": "support",
          "type": "bool"
        },
        {
          "internalType": "uint256",
          "name": "votes",
          "type": "uint256"
        }
      ],
      "stateMutability": "view",
      "type": "function"
    },
    {
      "inputs": [
        {
          "internalType": "bytes4",
          "name": "interfaceId",
          "type": "bytes4"
        }
      ],
      "name": "supportsInterface",
      "outputs": [
        {
          "internalType": "bool",
          "name": "",
          "type": "bool"
        }
      ],
      "stateMutability": "view",
      "type": "function"
    },
    {
      "inputs": [],
      "name": "uniqueContractId",
      "outputs": [
        {
          "internalType": "bytes32",
          "name": "",
          "type": "bytes32"
        }
      ],
      "stateMutability": "pure",
      "type": "function"
    },
    {
      "inputs": [
        {
          "internalType": "address",
          "name": "newImplementation",
          "type": "address"
        },
        {
          "internalType": "bytes",
          "name": "data",
          "type": "bytes"
        }
      ],
      "name": "upgradeToAndCall",
      "outputs": [],
      "stateMutability": "payable",
      "type": "function"
    },
    {
      "inputs": [
        {
          "internalType": "uint256",
          "name": "proposalId",
          "type": "uint256"
        },
        {
          "internalType": "bool",
          "name": "support",
          "type": "bool"
        },
        {
          "internalType": "string",
          "name": "reason",
          "type": "string"
        }
      ],
      "name": "vote",
      "outputs": [],
      "stateMutability": "nonpayable",
      "type": "function"
    }
  ],
  "transactionHash": "0x6dfe55091cf5b175f616dcd8ced82c10ac3d39e3e8dc136433c5b157a364c2f0",
  "args": [],
  "numDeployments": 1,
  "solcInputHash": "d772edb08352491e2d82dcf8dfa78591",
  "bytecode": "0x60a080604052346100ea57306080527ff0c57e16840df040f15088dc2f81fe391c3923bec73e23a9662efc9c229c6a005460ff8160401c166100d9576002600160401b03196001600160401b03821601610073575b6040516123ed90816100f08239608051818181610bc50152611af30152f35b6001600160401b0319166001600160401b039081177ff0c57e16840df040f15088dc2f81fe391c3923bec73e23a9662efc9c229c6a005581527fc7f505b2f371ae2175ee4913f4499e1f2633a7b5936321eed1cdaeb6115181d290602090a13880610054565b63f92ee8a960e01b60005260046000fd5b600080fdfe6080604052600436101561001257600080fd5b60003560e01c8063013cf08b1461012757806301ffc9a71461012257806306bfcec61461011d5780633153fedb1461011857806340e58ee5146101135780634178b2491461010e5780634f1ef2861461010957806352d1902d1461010457806382afd23b146100ff578063867884f0146100fa578063ad3cb1cc146100f5578063c4d66de8146100f0578063c7f758a8146100eb578063d3c0715b146100e6578063da35c664146100e1578063e23a9a52146100dc5763f5887cdd146100d757600080fd5b6113bf565b611304565b6112e6565b610fe4565b610f43565b610d2a565b610ce3565b610ca8565b610c1c565b610bb2565b6109b1565b610942565b610881565b6104d2565b610435565b6103d4565b61032b565b90600182811c9216801561015c575b602083101461014657565b634e487b7160e01b600052602260045260246000fd5b91607f169161013b565b600092918154916101768361012c565b80835292600181169081156101cc575060011461019257505050565b60009081526020812093945091925b8383106101b2575060209250010190565b6001816020929493945483858701015201910191906101a1565b915050602093945060ff929192191683830152151560051b010190565b634e487b7160e01b600052604160045260246000fd5b61012081019081106001600160401b0382111761021b57604052565b6101e9565b606081019081106001600160401b0382111761021b57604052565b90601f801991011681019081106001600160401b0382111761021b57604052565b906102776102709260405193848092610166565b038361023b565b565b60005b83811061028c5750506000910152565b818101518382015260200161027c565b906020916102b581518092818552858086019101610279565b601f01601f1916010190565b9794999895926102ff9061030d9361010099969360018060a01b03168b5260018060a01b031660208b015261012060408b01526101208a019061029c565b9088820360608a015261029c565b97608087015260a086015260c0850152151560e08401521515910152565b346103cf5760203660031901126103cf576004356000526034602052604060002060018060a01b038154166103cb60018060a01b03600184015416926040519061037c826102708160028501610166565b60405190610391826102708160038501610166565b600481015460058201549060076006840154930154936103be6103b48660ff1690565b9560081c60ff1690565b95604051998a998a6102c1565b0390f35b600080fd5b346103cf5760203660031901126103cf5760043563ffffffff60e01b81168091036103cf57602090634063a51b60e11b8114908115610419575b506040519015158152f35b6301ffc9a760e01b1490503861040e565b60009103126103cf57565b346103cf5760003660031901126103cf57602060405160018152f35b6001600160a01b038116036103cf57565b604051906102776101208361023b565b6001600160401b03811161021b57601f01601f191660200190565b81601f820112156103cf576020813591016104a782610472565b926104b5604051948561023b565b828452828201116103cf5781600092602092838601378301015290565b346103cf5760603660031901126103cf576004356104ef81610451565b6024356001600160401b0381116103cf5761050e90369060040161048d565b906044356001600160401b0381116103cf5761052e90369060040161048d565b60325490929061054e906001600160a01b03165b6001600160a01b031690565b6040516379502c5560e01b81529290602084600481845afa9081156107995760049460009261085f575b50602090604051958680926203e7d360e21b82525afa9384156107995760009461083e575b506105b26001600160a01b0383161515611409565b6105be85511515611446565b604051635da6a21b60e11b815233600482015293602090859060249082906001600160a01b03165afa9384156107995760009461081d575b50604051630b58131b60e41b81526001600160a01b039190911693602082600481885afa90811561079957610635926000926107fc575b501015611495565b600460206106446033546114f7565b9461064e86603355565b6040516302a251a360e01b815292839182905afa80156107995761067b916000916107cd575b504261150b565b936106e1610687610462565b3381526001600160a01b038416602082015284604082015282606082015260006080820152600060a08201528660c0820152600060e082015260006101008201526106dc866000526034602052604060002090565b61163b565b6032546004906020906106fc906001600160a01b0316610542565b6040516309ff78c360e41b815292839182905afa9081156107995760009161079e575b506001600160a01b031690813b156103cf576000809461075960405198899687958694637a6d875b60e11b86524292338d6004890161170e565b03925af1918215610799576103cb9261077e575b506040519081529081906020820190565b8061078d60006107939361023b565b8061042a565b3861076d565b6113fd565b6107c0915060203d6020116107c6575b6107b8818361023b565b8101906113e8565b3861071f565b503d6107ae565b6107ef915060203d6020116107f5575b6107e7818361023b565b810190611486565b38610674565b503d6107dd565b61081691925060203d6020116107f5576107e7818361023b565b903861062d565b61083791945060203d6020116107f5576107e7818361023b565b92386105f6565b61085891945060203d6020116107c6576107b8818361023b565b923861059d565b602091925061087a90823d84116107c6576107b8818361023b565b9190610578565b346103cf5760203660031901126103cf5760043580600052603460205260406000209060018060a01b0382541633148015610939575b15610903576108e560076108ec9301546108d86108d48260ff1690565b1590565b90816108ee575b50611764565b3390611a00565b005b6108fd915060081c60ff161590565b386108df565b60405162461bcd60e51b815260206004820152600e60248201526d139bdd08185d5d1a1bdc9a5e995960921b6044820152606490fd5b503033146108b7565b346103cf5760403660031901126103cf57606061098b60243560043561096782610451565b600052603560205260406000209060018060a01b0316600052602052604060002090565b6001815491015460ff604051928181161515845260081c16151560208301526040820152f35b60403660031901126103cf576004356109c981610451565b6024356001600160401b0381116103cf576109e890369060040161048d565b6109f0611ae9565b805115610b5d576109ff611ae9565b610a0761228e565b6040516301ffc9a760e01b8152634063a51b60e11b60048201526001600160a01b0383169290602081602481875afa801561079957610a4e91600091610b2e575b50611f31565b604051630867884f60e41b8152602081600481875afa93841561079957610aa47f9409903de1e6fd852dfc61c9dacb48196c48535b60e25abf92acc92dd689078d600496602094600091610b11575b5014611fa3565b60405163035fe76360e11b815294859182905afa928315610799576108ec93610ae191600091610af2575b50600181119081610ae6575b50612008565b612069565b60659150111538610adb565b610b0b915060203d6020116107f5576107e7818361023b565b38610acf565b610b289150853d87116107f5576107e7818361023b565b38610a9d565b610b50915060203d602011610b56575b610b48818361023b565b810190611f1c565b38610a48565b503d610b3e565b60405162461bcd60e51b815260206004820152602760248201527f5570677261646561626c65436f6e74726163743a20656d7074792075706772616044820152666465206461746160c81b6064820152608490fd5b346103cf5760003660031901126103cf577f00000000000000000000000000000000000000000000000000000000000000006001600160a01b03163003610c0b5760206040516000805160206123588339815191528152f35b63703e46dd60e11b60005260046000fd5b346103cf5760203660031901126103cf5760043580151580610c9c575b610c42906117a4565b60005260346020526103cb604060002060078101549060ff8216159182610c8d575b5081610c7e575b5060405190151581529081906020820190565b60069150015442111538610c6b565b60081c60ff1615915038610c64565b50603354811115610c39565b346103cf5760003660031901126103cf5760206040517f9409903de1e6fd852dfc61c9dacb48196c48535b60e25abf92acc92dd689078d8152f35b346103cf5760003660031901126103cf576103cb6040805190610d06818361023b565b60058252640352e302e360dc1b60208301525191829160208352602083019061029c565b346103cf5760203660031901126103cf57600435610d4781610451565b60008051602061239883398151915254906001600160401b03610d7960ff604085901c1615936001600160401b031690565b1680159081610e9b575b6001149081610e91575b159081610e88575b50610e7757610dda9082610dd160016001600160401b031960008051602061239883398151915254161760008051602061239883398151915255565b610e3b576117e3565b610de057005b610e0c60ff60401b19600080516020612398833981519152541660008051602061239883398151915255565b604051600181527fc7f505b2f371ae2175ee4913f4499e1f2633a7b5936321eed1cdaeb6115181d290602090a1005b610e726801000000000000000060ff60401b1960008051602061239883398151915254161760008051602061239883398151915255565b6117e3565b63f92ee8a960e01b60005260046000fd5b90501538610d95565b303b159150610d8d565b839150610d83565b602080825282516001600160a01b031690820152610f409060208301516001600160a01b03166040820152610120610100610f06610ef0604087015184606087015261014086019061029c565b6060870151858203601f1901608087015261029c565b94608081015160a085015260a081015160c085015260c081015160e0850152610f3760e08201518386019015159052565b01511515910152565b90565b346103cf5760203660031901126103cf576004356000610100604051610f68816101ff565b828152826020820152606060408201526060808201528260808201528260a08201528260c08201528260e0820152015280151580610fce575b610faa906117a4565b60005260346020526103cb610fc26040600020611882565b60405191829182610ea3565b50603354811115610fa1565b801515036103cf57565b346103cf5760603660031901126103cf5760243560043561100482610fda565b6044356001600160401b0381116103cf5761102390369060040161048d565b91600260008051602061237883398151915254146112d557600492600260008051602061237883398151915255821515806112c9575b611062906117a4565b611076836000526034602052604060002090565b61108b60078201546108d86108d48260ff1690565b61109b6006820154421115611919565b6110c56110b2856000526035602052604060002090565b3360009081526020919091526040902090565b6110db6110d66108d4835460ff1690565b611954565b6032546020906110f3906001600160a01b0316610542565b6040516203e7d360e21b815297889182905afa958615610799576000966112a8575b50604051635da6a21b60e11b815233600482015295602090879060249082906001600160a01b03165afa95861561079957600096611286575b506001869161115e831515611990565b805460ff19166001178155805461ff00191686151560081b61ff0016178155015582156112715760040161119385825461150b565b90555b6032546004906020906111b1906001600160a01b0316610542565b6040516309ff78c360e41b815292839182905afa90811561079957600091611252575b506001600160a01b0316803b156103cf5761120c9460008094604051978895869485936335e4b46f60e11b8552338b600487016119ce565b03925af1918215610799576112269261123d575b50611c29565b6108ec600160008051602061237883398151915255565b8061078d600061124c9361023b565b38611220565b61126b915060203d6020116107c6576107b8818361023b565b386111d4565b60050161127f85825461150b565b9055611196565b600196506112a29060203d6020116107f5576107e7818361023b565b9561114e565b6112c291965060203d6020116107c6576107b8818361023b565b9438611115565b50603354831115611059565b633ee5aeb560e01b60005260046000fd5b346103cf5760003660031901126103cf576020603354604051908152f35b346103cf5760403660031901126103cf576103cb61136860243560043561132a82610451565b60006040805161133981610220565b8281528260208201520152600052603560205260406000209060018060a01b0316600052602052604060002090565b60016040519161137783610220565b60ff81548181161515855260081c1615156020840152015460408201526040519182918291909160408060608301948051151584526020810151151560208501520151910152565b346103cf5760003660031901126103cf576032546040516001600160a01b039091168152602090f35b908160209103126103cf5751610f4081610451565b6040513d6000823e3d90fd5b1561141057565b60405162461bcd60e51b815260206004820152600e60248201526d125b9d985b1a59081d185c99d95d60921b6044820152606490fd5b1561144d57565b60405162461bcd60e51b815260206004820152601160248201527022b6b83a3c903232b9b1b934b83a34b7b760791b6044820152606490fd5b908160209103126103cf575190565b1561149c57565b60405162461bcd60e51b815260206004820152601960248201527f496e73756666696369656e7420766f74696e6720706f776572000000000000006044820152606490fd5b634e487b7160e01b600052601160045260246000fd5b60001981146115065760010190565b6114e1565b9190820180921161150657565b601f821161152557505050565b6000526020600020906020601f840160051c83019310611560575b601f0160051c01905b818110611554575050565b60008155600101611549565b9091508190611540565b91909182516001600160401b03811161021b576115918161158b845461012c565b84611518565b6020601f82116001146115d25781906115c39394956000926115c7575b50508160011b916000199060031b1c19161790565b9055565b0151905038806115ae565b601f198216906115e784600052602060002090565b9160005b8181106116235750958360019596971061160a575b505050811b019055565b015160001960f88460031b161c19169055388080611600565b9192602060018192868b0151815501940192016115eb565b815181546001600160a01b0319166001600160a01b0390911617815561027791906116f8906101009060079060208501516001820180546001600160a01b0319166001600160a01b0390921691909117905561169e60408601516002830161156a565b6116af60608601516003830161156a565b6080850151600482015560a0850151600582015560c0850151600682015501926116f16116df60e0830151151590565b859060ff801983541691151516179055565b0151151590565b815461ff00191690151560081b61ff0016179055565b9081526001600160a01b0391821660208201529116604082015260e0606082018190529395949360c093919261175a929161174c919085019061029c565b90838203608085015261029c565b9460a08201520152565b1561176b57565b60405162461bcd60e51b8152602060048201526011602482015270141c9bdc1bdcd85b08199a5b9a5cda1959607a1b6044820152606490fd5b156117ab57565b60405162461bcd60e51b815260206004820152601060248201526f125b9d985b1a59081c1c9bdc1bdcd85b60821b6044820152606490fd5b6001600160a01b03168015611846576bffffffffffffffffffffffff60a01b60325416176032556118126121a8565b61181a6121a8565b6118226121a8565b61182a6121a8565b6118326121a8565b600160008051602061237883398151915255565b60405162461bcd60e51b8152602060048201526014602482015273496e76616c6964206164647265737320626f6f6b60601b6044820152606490fd5b9061027761190f6007611893610462565b85546001600160a01b031681529460018101546001600160a01b031660208701526118c06002820161025c565b60408701526118d16003820161025c565b606087015260048101546080870152600581015460a0870152600681015460c0870152015461190660ff8216151560e0870152565b60081c60ff1690565b1515610100840152565b1561192057565b60405162461bcd60e51b815260206004820152600c60248201526b159bdd1a5b99c8195b99195960a21b6044820152606490fd5b1561195b57565b60405162461bcd60e51b815260206004820152600d60248201526c105b1c9958591e481d9bdd1959609a1b6044820152606490fd5b1561199757565b60405162461bcd60e51b815260206004820152600f60248201526e2737903b37ba34b733903837bbb2b960891b6044820152606490fd5b919260a093610f409695928452600180861b03166020840152151560408301526060820152816080820152019061029c565b611a296007611a19836000526034602052604060002090565b01805461ff001916610100179055565b603254600490602090611a44906001600160a01b0316610542565b6040516309ff78c360e41b815292839182905afa90811561079957600091611aca575b506001600160a01b031691823b156103cf5760405163aba09ce160e01b815260048101929092526001600160a01b03166024820152906000908290818381604481015b03925af1801561079957611abb5750565b8061078d60006102779361023b565b611ae3915060203d6020116107c6576107b8818361023b565b38611a67565b6001600160a01b037f000000000000000000000000000000000000000000000000000000000000000016308114908115611b25575b50610c0b57565b600080516020612358833981519152546001600160a01b03161415905038611b1e565b8181029291811591840414171561150657565b60009291815491611b6b8361012c565b9260018116908115611bb65750600114611b8457505050565b909192935060005260206000206000905b838210611ba25750500190565b600181602092548486015201910190611b95565b60ff191683525050811515909102019150565b3d15611bf4573d90611bda82610472565b91611be8604051938461023b565b82523d6000602084013e565b606090565b15611c015750565b60405162461bcd60e51b815260206004820152908190611c2590602483019061029c565b0390fd5b611c3d816000526034602052604060002090565b60078101908154611c4e8160ff1690565b908115611f0e575b50611f0957603254611c70906001600160a01b0316610542565b6040516379502c5560e01b815290602082600481845afa90811561079957600492600092611ee7575b50602090604051938480926203e7d360e21b82525afa91821561079957600492602091600091611eca575b506040516311acc1a760e01b815293849182906001600160a01b03165afa91821561079957600092611ea5575b50604051634fa76ec960e01b815290602090829060049082906001600160a01b03165afa801561079957611d3992611d3192600092611e84575b50611b48565b612710900490565b9060048101928354838110159081611e76575b50611d80575060050154908110159182611d75575b5050611d6a5750565b610277903090611a00565b541090503880611d61565b9150611ddc925060008082600282611da46001611dcf97015460018060a01b031690565b92611db56040518094819301611b5b565b03925af1611dc9611dc4611bc9565b6121d6565b90611bf9565b805460ff19166001179055565b603254600490602090611df7906001600160a01b0316610542565b6040516309ff78c360e41b815292839182905afa90811561079957600091611e57575b506001600160a01b0316803b156103cf576040516370afc7e960e11b81526004810192909252306024830152600090829081838160448101611aaa565b611e70915060203d6020116107c6576107b8818361023b565b38611e1a565b905060058301541038611d4c565b611e9e91925060203d6020116107f5576107e7818361023b565b9038611d2b565b6004919250611ec2602091823d84116107f5576107e7818361023b565b929150611cf1565b611ee19150823d84116107c6576107b8818361023b565b38611cc4565b6020919250611f0290823d84116107c6576107b8818361023b565b9190611c99565b505050565b60081c60ff16905038611c56565b908160209103126103cf5751610f4081610fda565b15611f3857565b60405162461bcd60e51b815260206004820152603a60248201527f5570677261646561626c65436f6e74726163743a206e657720696d706c206e6f60448201527f742049556e6971756556657273696f6e6564436f6e74726163740000000000006064820152608490fd5b15611faa57565b60405162461bcd60e51b815260206004820152603060248201527f5570677261646561626c65436f6e74726163743a20756e69717565436f6e747260448201526f6163744964206e6f7420657175616c7360801b6064820152608490fd5b1561200f57565b60405162461bcd60e51b815260206004820152602c60248201527f5570677261646561626c65436f6e74726163743a20696e76616c69642076657260448201526b73696f6e207570677261646560a01b6064820152608490fd5b6040516352d1902d60e01b81529091906020816004816001600160a01b0387165afa60009181612187575b506120b757634c9c8ce360e01b6000526001600160a01b03831660045260246000fd5b60008051602061235883398151915281036121735750813b156121515760008051602061235883398151915280546001600160a01b0319166001600160a01b0384169081179091557fbc7cd75a20ee27fd9adebab32041f755214dbc6bffa90cc0225b39da2e5c2d3b600080a280511561213757612134916122dd565b50565b50503461214057565b63b398979f60e01b60005260046000fd5b50634c9c8ce360e01b60009081526001600160a01b0391909116600452602490fd5b632a87526960e21b60005260045260246000fd5b6121a191925060203d6020116107f5576107e7818361023b565b9038612094565b60ff6000805160206123988339815191525460401c16156121c557565b631afcd79f60e31b60005260046000fd5b60448151106122525760048101518101602481019190602090829003126103cf576024810151906001600160401b0382116103cf5701816043820112156103cf57602481015161222581610472565b92612233604051948561023b565b818452604483830101116103cf57610f40916044602085019101610279565b5060405161226160408261023b565b601d81527f5472616e73616374696f6e2072657665727465642073696c656e746c79000000602082015290565b6032546000906001600160a01b0316803b156122d957816024916040519283809263d58e836b60e01b82523360048301525afa8015610799576122cf575050565b816121349161023b565b5080fd5b600080610f4093602081519101845af46122f5611bc9565b919061231c575080511561230b57805190602001fd5b63d6bda27560e01b60005260046000fd5b8151158061234e575b61232d575090565b639996b31560e01b60009081526001600160a01b0391909116600452602490fd5b50803b1561232556fe360894a13ba1a3210667c828492db98dca3e2076cc3735a920a3ca505d382bbc9b779b17422d0df92223018b32b4d1fa46e071723d6817e2486d003becc55f00f0c57e16840df040f15088dc2f81fe391c3923bec73e23a9662efc9c229c6a00a2646970667358221220a7c2447c56b7b6f702522d3c95e3e78cda643d04e4bde0dffb4fb69dd635d91f64736f6c634300081c0033",
  "devdoc": {
    "errors": {
      "AddressEmptyCode(address)": [
        {
          "details": "There's no code at `target` (it is not a contract)."
        }
      ],
      "ERC1967InvalidImplementation(address)": [
        {
          "details": "The `implementation` of the proxy is invalid."
        }
      ],
      "ERC1967NonPayable()": [
        {
          "details": "An upgrade function sees `msg.value > 0` that may be lost."
        }
      ],
      "FailedCall()": [
        {
          "details": "A call to an address target failed. The target may have reverted."
        }
      ],
      "InvalidInitialization()": [
        {
          "details": "The contract is already initialized."
        }
      ],
      "NotInitializing()": [
        {
          "details": "The contract is not initializing."
        }
      ],
      "ReentrancyGuardReentrantCall()": [
        {
          "details": "Unauthorized reentrant call."
        }
      ],
      "UUPSUnauthorizedCallContext()": [
        {
          "details": "The call is from an unauthorized context."
        }
      ],
      "UUPSUnsupportedProxiableUUID(bytes32)": [
        {
          "details": "The storage `slot` is unsupported as a UUID."
        }
      ]
    },
    "events": {
      "Initialized(uint64)": {
        "details": "Triggered when the contract has been initialized or reinitialized."
      },
      "Upgraded(address)": {
        "details": "Emitted when the implementation is upgraded."
      }
    },
    "kind": "dev",
    "methods": {
      "proxiableUUID()": {
        "details": "Implementation of the ERC-1822 {proxiableUUID} function. This returns the storage slot used by the implementation. It is used to validate the implementation's compatibility when performing an upgrade. IMPORTANT: A proxy pointing at a proxiable contract should not be considered proxiable itself, because this risks bricking a proxy that upgrades to it, by delegating to itself until out of gas. Thus it is critical that this function revert if invoked through a proxy. This is guaranteed by the `notDelegated` modifier."
      },
      "supportsInterface(bytes4)": {
        "details": "See {IERC165-supportsInterface}."
      },
      "upgradeToAndCall(address,bytes)": {
        "details": "Upgrade the implementation of the proxy to `newImplementation`, and subsequently execute the function call encoded in `data`. Calls {_authorizeUpgrade}. Emits an {Upgraded} event."
      }
    },
    "title": "DAO Governance Contract",
    "version": 1
  },
  "userdoc": {
    "kind": "user",
    "methods": {
      "cancel(uint256)": {
        "notice": "Manual cancel by proposer"
      },
      "getProposal(uint256)": {
        "notice": "Get proposal info"
      },
      "getReceipt(uint256,address)": {
        "notice": "Get vote receipt"
      },
      "isActive(uint256)": {
        "notice": "Check if proposal is active"
      },
      "propose(address,bytes,string)": {
        "notice": "Creates proposal with instant start"
      },
      "vote(uint256,bool,string)": {
        "notice": "Vote and auto-execute/cancel"
      }
    },
    "notice": "Simple governance with instant proposals and automatic execution/cancellation",
    "version": 1
  },
  "storageLayout": {
    "storage": [
      {
        "astId": 20636,
        "contract": "contracts/dao/Governance.sol:Governance",
        "label": "__gap",
        "offset": 0,
        "slot": "0",
        "type": "t_array(t_uint256)50_storage"
      },
      {
        "astId": 11140,
        "contract": "contracts/dao/Governance.sol:Governance",
        "label": "addressBook",
        "offset": 0,
        "slot": "50",
        "type": "t_contract(AddressBook)17660"
      },
      {
        "astId": 11142,
        "contract": "contracts/dao/Governance.sol:Governance",
        "label": "proposalCount",
        "offset": 0,
        "slot": "51",
        "type": "t_uint256"
      },
      {
        "astId": 11173,
        "contract": "contracts/dao/Governance.sol:Governance",
        "label": "proposals",
        "offset": 0,
        "slot": "52",
        "type": "t_mapping(t_uint256,t_struct(Proposal)11161_storage)"
      },
      {
        "astId": 11180,
        "contract": "contracts/dao/Governance.sol:Governance",
        "label": "receipts",
        "offset": 0,
        "slot": "53",
        "type": "t_mapping(t_uint256,t_mapping(t_address,t_struct(Receipt)11168_storage))"
      }
    ],
    "types": {
      "t_address": {
        "encoding": "inplace",
        "label": "address",
        "numberOfBytes": "20"
      },
      "t_array(t_uint256)50_storage": {
        "base": "t_uint256",
        "encoding": "inplace",
        "label": "uint256[50]",
        "numberOfBytes": "1600"
      },
      "t_bool": {
        "encoding": "inplace",
        "label": "bool",
        "numberOfBytes": "1"
      },
      "t_bytes_storage": {
        "encoding": "bytes",
        "label": "bytes",
        "numberOfBytes": "32"
      },
      "t_contract(AddressBook)17660": {
        "encoding": "inplace",
        "label": "contract AddressBook",
        "numberOfBytes": "20"
      },
      "t_mapping(t_address,t_struct(Receipt)11168_storage)": {
        "encoding": "mapping",
        "key": "t_address",
        "label": "mapping(address => struct Governance.Receipt)",
        "numberOfBytes": "32",
        "value": "t_struct(Receipt)11168_storage"
      },
      "t_mapping(t_uint256,t_mapping(t_address,t_struct(Receipt)11168_storage))": {
        "encoding": "mapping",
        "key": "t_uint256",
        "label": "mapping(uint256 => mapping(address => struct Governance.Receipt))",
        "numberOfBytes": "32",
        "value": "t_mapping(t_address,t_struct(Receipt)11168_storage)"
      },
      "t_mapping(t_uint256,t_struct(Proposal)11161_storage)": {
        "encoding": "mapping",
        "key": "t_uint256",
        "label": "mapping(uint256 => struct Governance.Proposal)",
        "numberOfBytes": "32",
        "value": "t_struct(Proposal)11161_storage"
      },
      "t_string_storage": {
        "encoding": "bytes",
        "label": "string",
        "numberOfBytes": "32"
      },
      "t_struct(Proposal)11161_storage": {
        "encoding": "inplace",
        "label": "struct Governance.Proposal",
        "members": [
          {
            "astId": 11144,
            "contract": "contracts/dao/Governance.sol:Governance",
            "label": "proposer",
            "offset": 0,
            "slot": "0",
            "type": "t_address"
          },
          {
            "astId": 11146,
            "contract": "contracts/dao/Governance.sol:Governance",
            "label": "target",
            "offset": 0,
            "slot": "1",
            "type": "t_address"
          },
          {
            "astId": 11148,
            "contract": "contracts/dao/Governance.sol:Governance",
            "label": "data",
            "offset": 0,
            "slot": "2",
            "type": "t_bytes_storage"
          },
          {
            "astId": 11150,
            "contract": "contracts/dao/Governance.sol:Governance",
            "label": "description",
            "offset": 0,
            "slot": "3",
            "type": "t_string_storage"
          },
          {
            "astId": 11152,
            "contract": "contracts/dao/Governance.sol:Governance",
            "label": "votesFor",
            "offset": 0,
            "slot": "4",
            "type": "t_uint256"
          },
          {
            "astId": 11154,
            "contract": "contracts/dao/Governance.sol:Governance",
            "label": "votesAgainst",
            "offset": 0,
            "slot": "5",
            "type": "t_uint256"
          },
          {
            "astId": 11156,
            "contract": "contracts/dao/Governance.sol:Governance",
            "label": "endTime",
            "offset": 0,
            "slot": "6",
            "type": "t_uint256"
          },
          {
            "astId": 11158,
            "contract": "contracts/dao/Governance.sol:Governance",
            "label": "executed",
            "offset": 0,
            "slot": "7",
            "type": "t_bool"
          },
          {
            "astId": 11160,
            "contract": "contracts/dao/Governance.sol:Governance",
            "label": "cancelled",
            "offset": 1,
            "slot": "7",
            "type": "t_bool"
          }
        ],
        "numberOfBytes": "256"
      },
      "t_struct(Receipt)11168_storage": {
        "encoding": "inplace",
        "label": "struct Governance.Receipt",
        "members": [
          {
            "astId": 11163,
            "contract": "contracts/dao/Governance.sol:Governance",
            "label": "hasVoted",
            "offset": 0,
            "slot": "0",
            "type": "t_bool"
          },
          {
            "astId": 11165,
            "contract": "contracts/dao/Governance.sol:Governance",
            "label": "support",
            "offset": 1,
            "slot": "0",
            "type": "t_bool"
          },
          {
            "astId": 11167,
            "contract": "contracts/dao/Governance.sol:Governance",
            "label": "votes",
            "offset": 0,
            "slot": "1",
            "type": "t_uint256"
          }
        ],
        "numberOfBytes": "64"
      },
      "t_uint256": {
        "encoding": "inplace",
        "label": "uint256",
        "numberOfBytes": "32"
      }
    }
  }
}