{
  "address": "0xb3766Eb647cF846F241C23CAfd3ff47ba8C7c7B5",
  "abi": [
    {
      "inputs": [],
      "stateMutability": "nonpayable",
      "type": "constructor"
    },
    {
      "inputs": [
        {
          "internalType": "address",
          "name": "target",
          "type": "address"
        }
      ],
      "name": "AddressEmptyCode",
      "type": "error"
    },
    {
      "inputs": [
        {
          "internalType": "address",
          "name": "sender",
          "type": "address"
        },
        {
          "internalType": "uint256",
          "name": "balance",
          "type": "uint256"
        },
        {
          "internalType": "uint256",
          "name": "needed",
          "type": "uint256"
        },
        {
          "internalType": "uint256",
          "name": "tokenId",
          "type": "uint256"
        }
      ],
      "name": "ERC1155InsufficientBalance",
      "type": "error"
    },
    {
      "inputs": [
        {
          "internalType": "address",
          "name": "approver",
          "type": "address"
        }
      ],
      "name": "ERC1155InvalidApprover",
      "type": "error"
    },
    {
      "inputs": [
        {
          "internalType": "uint256",
          "name": "idsLength",
          "type": "uint256"
        },
        {
          "internalType": "uint256",
          "name": "valuesLength",
          "type": "uint256"
        }
      ],
      "name": "ERC1155InvalidArrayLength",
      "type": "error"
    },
    {
      "inputs": [
        {
          "internalType": "address",
          "name": "operator",
          "type": "address"
        }
      ],
      "name": "ERC1155InvalidOperator",
      "type": "error"
    },
    {
      "inputs": [
        {
          "internalType": "address",
          "name": "receiver",
          "type": "address"
        }
      ],
      "name": "ERC1155InvalidReceiver",
      "type": "error"
    },
    {
      "inputs": [
        {
          "internalType": "address",
          "name": "sender",
          "type": "address"
        }
      ],
      "name": "ERC1155InvalidSender",
      "type": "error"
    },
    {
      "inputs": [
        {
          "internalType": "address",
          "name": "operator",
          "type": "address"
        },
        {
          "internalType": "address",
          "name": "owner",
          "type": "address"
        }
      ],
      "name": "ERC1155MissingApprovalForAll",
      "type": "error"
    },
    {
      "inputs": [
        {
          "internalType": "address",
          "name": "implementation",
          "type": "address"
        }
      ],
      "name": "ERC1967InvalidImplementation",
      "type": "error"
    },
    {
      "inputs": [],
      "name": "ERC1967NonPayable",
      "type": "error"
    },
    {
      "inputs": [],
      "name": "FailedCall",
      "type": "error"
    },
    {
      "inputs": [],
      "name": "InvalidInitialization",
      "type": "error"
    },
    {
      "inputs": [],
      "name": "NotInitializing",
      "type": "error"
    },
    {
      "inputs": [
        {
          "internalType": "uint256",
          "name": "value",
          "type": "uint256"
        },
        {
          "internalType": "uint256",
          "name": "length",
          "type": "uint256"
        }
      ],
      "name": "StringsInsufficientHexLength",
      "type": "error"
    },
    {
      "inputs": [],
      "name": "UUPSUnauthorizedCallContext",
      "type": "error"
    },
    {
      "inputs": [
        {
          "internalType": "bytes32",
          "name": "slot",
          "type": "bytes32"
        }
      ],
      "name": "UUPSUnsupportedProxiableUUID",
      "type": "error"
    },
    {
      "anonymous": false,
      "inputs": [
        {
          "indexed": true,
          "internalType": "address",
          "name": "account",
          "type": "address"
        },
        {
          "indexed": true,
          "internalType": "address",
          "name": "operator",
          "type": "address"
        },
        {
          "indexed": false,
          "internalType": "bool",
          "name": "approved",
          "type": "bool"
        }
      ],
      "name": "ApprovalForAll",
      "type": "event"
    },
    {
      "anonymous": false,
      "inputs": [
        {
          "indexed": false,
          "internalType": "uint64",
          "name": "version",
          "type": "uint64"
        }
      ],
      "name": "Initialized",
      "type": "event"
    },
    {
      "anonymous": false,
      "inputs": [
        {
          "indexed": true,
          "internalType": "address",
          "name": "operator",
          "type": "address"
        },
        {
          "indexed": true,
          "internalType": "address",
          "name": "from",
          "type": "address"
        },
        {
          "indexed": true,
          "internalType": "address",
          "name": "to",
          "type": "address"
        },
        {
          "indexed": false,
          "internalType": "uint256[]",
          "name": "ids",
          "type": "uint256[]"
        },
        {
          "indexed": false,
          "internalType": "uint256[]",
          "name": "values",
          "type": "uint256[]"
        }
      ],
      "name": "TransferBatch",
      "type": "event"
    },
    {
      "anonymous": false,
      "inputs": [
        {
          "indexed": true,
          "internalType": "address",
          "name": "operator",
          "type": "address"
        },
        {
          "indexed": true,
          "internalType": "address",
          "name": "from",
          "type": "address"
        },
        {
          "indexed": true,
          "internalType": "address",
          "name": "to",
          "type": "address"
        },
        {
          "indexed": false,
          "internalType": "uint256",
          "name": "id",
          "type": "uint256"
        },
        {
          "indexed": false,
          "internalType": "uint256",
          "name": "value",
          "type": "uint256"
        }
      ],
      "name": "TransferSingle",
      "type": "event"
    },
    {
      "anonymous": false,
      "inputs": [
        {
          "indexed": false,
          "internalType": "string",
          "name": "value",
          "type": "string"
        },
        {
          "indexed": true,
          "internalType": "uint256",
          "name": "id",
          "type": "uint256"
        }
      ],
      "name": "URI",
      "type": "event"
    },
    {
      "anonymous": false,
      "inputs": [
        {
          "indexed": true,
          "internalType": "address",
          "name": "implementation",
          "type": "address"
        }
      ],
      "name": "Upgraded",
      "type": "event"
    },
    {
      "inputs": [],
      "name": "UPGRADE_INTERFACE_VERSION",
      "outputs": [
        {
          "internalType": "string",
          "name": "",
          "type": "string"
        }
      ],
      "stateMutability": "view",
      "type": "function"
    },
    {
      "inputs": [],
      "name": "addressBook",
      "outputs": [
        {
          "internalType": "contract AddressBook",
          "name": "",
          "type": "address"
        }
      ],
      "stateMutability": "view",
      "type": "function"
    },
    {
      "inputs": [
        {
          "internalType": "address",
          "name": "account",
          "type": "address"
        },
        {
          "internalType": "uint256",
          "name": "id",
          "type": "uint256"
        }
      ],
      "name": "balanceOf",
      "outputs": [
        {
          "internalType": "uint256",
          "name": "",
          "type": "uint256"
        }
      ],
      "stateMutability": "view",
      "type": "function"
    },
    {
      "inputs": [
        {
          "internalType": "address[]",
          "name": "accounts",
          "type": "address[]"
        },
        {
          "internalType": "uint256[]",
          "name": "ids",
          "type": "uint256[]"
        }
      ],
      "name": "balanceOfBatch",
      "outputs": [
        {
          "internalType": "uint256[]",
          "name": "",
          "type": "uint256[]"
        }
      ],
      "stateMutability": "view",
      "type": "function"
    },
    {
      "inputs": [
        {
          "internalType": "address",
          "name": "account",
          "type": "address"
        },
        {
          "internalType": "uint256",
          "name": "tokenId",
          "type": "uint256"
        },
        {
          "internalType": "uint256",
          "name": "amount",
          "type": "uint256"
        }
      ],
      "name": "burn",
      "outputs": [],
      "stateMutability": "nonpayable",
      "type": "function"
    },
    {
      "inputs": [
        {
          "internalType": "address",
          "name": "pool",
          "type": "address"
        }
      ],
      "name": "createToken",
      "outputs": [
        {
          "internalType": "uint256",
          "name": "",
          "type": "uint256"
        }
      ],
      "stateMutability": "nonpayable",
      "type": "function"
    },
    {
      "inputs": [],
      "name": "entityId",
      "outputs": [
        {
          "internalType": "string",
          "name": "",
          "type": "string"
        }
      ],
      "stateMutability": "view",
      "type": "function"
    },
    {
      "inputs": [],
      "name": "entityOwnerId",
      "outputs": [
        {
          "internalType": "string",
          "name": "",
          "type": "string"
        }
      ],
      "stateMutability": "view",
      "type": "function"
    },
    {
      "inputs": [],
      "name": "entityOwnerType",
      "outputs": [
        {
          "internalType": "string",
          "name": "",
          "type": "string"
        }
      ],
      "stateMutability": "view",
      "type": "function"
    },
    {
      "inputs": [
        {
          "internalType": "uint256",
          "name": "id",
          "type": "uint256"
        }
      ],
      "name": "exists",
      "outputs": [
        {
          "internalType": "bool",
          "name": "",
          "type": "bool"
        }
      ],
      "stateMutability": "view",
      "type": "function"
    },
    {
      "inputs": [],
      "name": "implementationVersion",
      "outputs": [
        {
          "internalType": "uint256",
          "name": "",
          "type": "uint256"
        }
      ],
      "stateMutability": "pure",
      "type": "function"
    },
    {
      "inputs": [
        {
          "internalType": "address",
          "name": "initialAddressBook",
          "type": "address"
        },
        {
          "internalType": "address",
          "name": "initialOwner",
          "type": "address"
        },
        {
          "internalType": "string",
          "name": "initialEntityId",
          "type": "string"
        },
        {
          "internalType": "string",
          "name": "initialEntityOwnerId",
          "type": "string"
        },
        {
          "internalType": "string",
          "name": "initialEntityOwnerType",
          "type": "string"
        }
      ],
      "name": "initialize",
      "outputs": [],
      "stateMutability": "nonpayable",
      "type": "function"
    },
    {
      "inputs": [
        {
          "internalType": "address",
          "name": "account",
          "type": "address"
        },
        {
          "internalType": "address",
          "name": "operator",
          "type": "address"
        }
      ],
      "name": "isApprovedForAll",
      "outputs": [
        {
          "internalType": "bool",
          "name": "",
          "type": "bool"
        }
      ],
      "stateMutability": "view",
      "type": "function"
    },
    {
      "inputs": [
        {
          "internalType": "address",
          "name": "account",
          "type": "address"
        },
        {
          "internalType": "uint256",
          "name": "tokenId",
          "type": "uint256"
        },
        {
          "internalType": "uint256",
          "name": "amount",
          "type": "uint256"
        }
      ],
      "name": "mint",
      "outputs": [],
      "stateMutability": "nonpayable",
      "type": "function"
    },
    {
      "inputs": [],
      "name": "owner",
      "outputs": [
        {
          "internalType": "address",
          "name": "",
          "type": "address"
        }
      ],
      "stateMutability": "view",
      "type": "function"
    },
    {
      "inputs": [
        {
          "internalType": "uint256",
          "name": "",
          "type": "uint256"
        }
      ],
      "name": "pools",
      "outputs": [
        {
          "internalType": "address",
          "name": "",
          "type": "address"
        }
      ],
      "stateMutability": "view",
      "type": "function"
    },
    {
      "inputs": [],
      "name": "proxiableUUID",
      "outputs": [
        {
          "internalType": "bytes32",
          "name": "",
          "type": "bytes32"
        }
      ],
      "stateMutability": "view",
      "type": "function"
    },
    {
      "inputs": [
        {
          "internalType": "address",
          "name": "from",
          "type": "address"
        },
        {
          "internalType": "address",
          "name": "to",
          "type": "address"
        },
        {
          "internalType": "uint256[]",
          "name": "ids",
          "type": "uint256[]"
        },
        {
          "internalType": "uint256[]",
          "name": "values",
          "type": "uint256[]"
        },
        {
          "internalType": "bytes",
          "name": "data",
          "type": "bytes"
        }
      ],
      "name": "safeBatchTransferFrom",
      "outputs": [],
      "stateMutability": "nonpayable",
      "type": "function"
    },
    {
      "inputs": [
        {
          "internalType": "address",
          "name": "from",
          "type": "address"
        },
        {
          "internalType": "address",
          "name": "to",
          "type": "address"
        },
        {
          "internalType": "uint256",
          "name": "id",
          "type": "uint256"
        },
        {
          "internalType": "uint256",
          "name": "value",
          "type": "uint256"
        },
        {
          "internalType": "bytes",
          "name": "data",
          "type": "bytes"
        }
      ],
      "name": "safeTransferFrom",
      "outputs": [],
      "stateMutability": "nonpayable",
      "type": "function"
    },
    {
      "inputs": [
        {
          "internalType": "address",
          "name": "operator",
          "type": "address"
        },
        {
          "internalType": "bool",
          "name": "approved",
          "type": "bool"
        }
      ],
      "name": "setApprovalForAll",
      "outputs": [],
      "stateMutability": "nonpayable",
      "type": "function"
    },
    {
      "inputs": [
        {
          "internalType": "bytes4",
          "name": "interfaceId",
          "type": "bytes4"
        }
      ],
      "name": "supportsInterface",
      "outputs": [
        {
          "internalType": "bool",
          "name": "",
          "type": "bool"
        }
      ],
      "stateMutability": "view",
      "type": "function"
    },
    {
      "inputs": [],
      "name": "tokensLength",
      "outputs": [
        {
          "internalType": "uint256",
          "name": "",
          "type": "uint256"
        }
      ],
      "stateMutability": "view",
      "type": "function"
    },
    {
      "inputs": [],
      "name": "totalSupply",
      "outputs": [
        {
          "internalType": "uint256",
          "name": "",
          "type": "uint256"
        }
      ],
      "stateMutability": "view",
      "type": "function"
    },
    {
      "inputs": [
        {
          "internalType": "uint256",
          "name": "id",
          "type": "uint256"
        }
      ],
      "name": "totalSupply",
      "outputs": [
        {
          "internalType": "uint256",
          "name": "",
          "type": "uint256"
        }
      ],
      "stateMutability": "view",
      "type": "function"
    },
    {
      "inputs": [],
      "name": "uniqueContractId",
      "outputs": [
        {
          "internalType": "bytes32",
          "name": "",
          "type": "bytes32"
        }
      ],
      "stateMutability": "pure",
      "type": "function"
    },
    {
      "inputs": [
        {
          "internalType": "address",
          "name": "newImplementation",
          "type": "address"
        },
        {
          "internalType": "bytes",
          "name": "data",
          "type": "bytes"
        }
      ],
      "name": "upgradeToAndCall",
      "outputs": [],
      "stateMutability": "payable",
      "type": "function"
    },
    {
      "inputs": [
        {
          "internalType": "uint256",
          "name": "tokenId",
          "type": "uint256"
        }
      ],
      "name": "uri",
      "outputs": [
        {
          "internalType": "string",
          "name": "",
          "type": "string"
        }
      ],
      "stateMutability": "view",
      "type": "function"
    }
  ],
  "transactionHash": "0x7f8df141c7521e6f50180585045d076ae287569c342b9cbaeca3e70d06e603bc",
  "args": [],
  "numDeployments": 1,
  "solcInputHash": "3b084e33ac928c42a5c86b6d7549fb77",
  "bytecode": "0x60a080604052346100ea57306080527ff0c57e16840df040f15088dc2f81fe391c3923bec73e23a9662efc9c229c6a005460ff8160401c166100d9576002600160401b03196001600160401b03821601610073575b60405161302f90816100f08239608051818181610dc3015261226e0152f35b6001600160401b0319166001600160401b039081177ff0c57e16840df040f15088dc2f81fe391c3923bec73e23a9662efc9c229c6a005581527fc7f505b2f371ae2175ee4913f4499e1f2633a7b5936321eed1cdaeb6115181d290602090a13880610054565b63f92ee8a960e01b60005260046000fd5b600080fdfe6080604052600436101561001257600080fd5b60003560e01c8062fdd58e146101c657806301ffc9a7146101c157806306bfcec6146101bc5780630e89341c146101b7578063156e29f6146101b257806318160ddd146101ad5780632eb2c2d6146101a857806337608233146101a35780633f2f5ee21461019e5780634e1273f4146101995780634f1ef286146101945780634f558e791461018f57806352d1902d1461018a578063867884f0146101855780638da5cb5b14610180578063a22cb4651461017b578063ab95a63614610176578063ac4afa3814610171578063ad3cb1cc1461016c578063b4aa6d3e14610167578063bd85b03914610162578063c21ab7f91461015d578063d92fc67b14610158578063e985e9c514610153578063f242432a1461014e578063f5298aca146101495763f5887cdd1461014457600080fd5b6114a7565b6113cb565b6112c7565b611282565b611264565b611153565b61111a565b611072565b61102b565b610fe2565b610f3a565b610e88565b610e55565b610e1a565b610db0565b610d75565b610b64565b610aa3565b6109cc565b6108fc565b61082e565b6106f3565b6104f3565b61035d565b6102e5565b610251565b6101e1565b6001600160a01b038116036101dc57565b600080fd5b346101dc5760403660031901126101dc576020610236600435610203816101cb565b602435600052600080516020612f5a833981519152835260406000209060018060a01b0316600052602052604060002090565b54604051908152f35b6001600160e01b03198116036101dc57565b346101dc5760203660031901126101dc5760043561026e8161023f565b63ffffffff60e01b16636cdb3d1360e11b81149081156102c9575b811561029e575b506040519015158152602090f35b634063a51b60e11b8114915081156102b8575b5038610290565b6301ffc9a760e01b149050386102b1565b6303a24d0760e21b81149150610289565b60009103126101dc57565b346101dc5760003660031901126101dc57602060405160018152f35b60005b8381106103145750506000910152565b8181015183820152602001610304565b9060209161033d81518092818552858086019101610301565b601f01601f1916010190565b90602061035a928181520190610324565b90565b346101dc5760203660031901126101dc5760048035801515806104c4575b61038490611542565b6032546020906103a4906001600160a01b03165b6001600160a01b031690565b6040516379502c5560e01b815293849182905afa918215610490576004926000918291610495575b5060405163763c87bf60e01b815293849182906001600160a01b03165afa91821561049057610463926104369261045792600092610467575b506104499061044361043661042261041c30611f03565b93611fde565b92610443604051988997602089019061160d565b602f60f81b815260010190565b9061160d565b03601f198101835282610734565b60405191829182610349565b0390f35b610449919250610489903d806000833e6104818183610734565b8101906115af565b9190610405565b6115a3565b6104b7915060203d6020116104bd575b6104af8183610734565b81019061158e565b386103cc565b503d6104a5565b5060385481111561037b565b60609060031901126101dc576004356104e8816101cb565b906024359060443590565b346101dc57610501366104d0565b90916001600160a01b038116156106ba5761051d821515611624565b602061055c604051936105308386610734565b600085526000959160405192600184526020840152604083019160018352606084015260808301604052565b909161056a82848689612b62565b855b835181101561066c57603254600490839061058f906001600160a01b0316610398565b6040516309ff78c360e41b815292839182905afa90811561049057889161064f575b506001600160a01b031690876105c78287611d8e565b51926105d38387611d8e565b5190803b1561064b576040516318ffb5b960e31b81526001600160a01b0384811660048301528a166024820152604481019590955260648501919091528390608490829084905af191821561049057600192610631575b500161056c565b8061063f8a61064593610734565b806102da565b3861062a565b8280fd5b6106669150833d85116104bd576104af8183610734565b386105b1565b50919392916001600160a01b038316610683578580f35b84516001036106a7578061069e950151910151918533612a73565b38808080808580f35b5090926106b593853361293e565b61069e565b60405162461bcd60e51b8152602060048201526011602482015270125b9d985b1a59081c9958da5c1a595b9d607a1b6044820152606490fd5b346101dc5760003660031901126101dc576020600080516020612f9a83398151915254604051908152f35b634e487b7160e01b600052604160045260246000fd5b90601f801991011681019081106001600160401b0382111761075557604052565b61071e565b6001600160401b0381116107555760051b60200190565b9080601f830112156101dc5781356107888161075a565b926107966040519485610734565b81845260208085019260051b8201019283116101dc57602001905b8282106107be5750505090565b81358152602091820191016107b1565b6001600160401b03811161075557601f01601f191660200190565b81601f820112156101dc57602081359101610803826107ce565b926108116040519485610734565b828452828201116101dc5781600092602092838601378301015290565b346101dc5760a03660031901126101dc5760043561084b816101cb565b60243590610858826101cb565b6044356001600160401b0381116101dc57610877903690600401610771565b6064356001600160401b0381116101dc57610896903690600401610771565b90608435936001600160401b0385116101dc576108ba6108c09536906004016107e9565b93611670565b005b90600182811c921680156108f2575b60208310146108dc57565b634e487b7160e01b600052602260045260246000fd5b91607f16916108d1565b346101dc5760003660031901126101dc5760405160365460009081610920826108c2565b80855291600181169081156109a55750600114610948575b6104638461045781860382610734565b603681527f4a11f94e20a93c79f6ec743a1954ec4fc2c08429ae2122118bf234b2185c81b8939250905b80821061098b5750909150810160200161045782610938565b919260018160209254838588010152019101909291610972565b60ff191660208087019190915292151560051b850190920192506104579150839050610938565b346101dc5760a03660031901126101dc576004356109e9816101cb565b602435906109f6826101cb565b6044356001600160401b0381116101dc57610a159036906004016107e9565b6064356001600160401b0381116101dc57610a349036906004016107e9565b90608435936001600160401b0385116101dc57610a586108c09536906004016107e9565b936116c3565b906020808351928381520192019060005b818110610a7c5750505090565b8251845260209384019390920191600101610a6f565b90602061035a928181520190610a5e565b346101dc5760403660031901126101dc576004356001600160401b0381116101dc57366023820112156101dc57806004013590610adf8261075a565b91610aed6040519384610734565b8083526024602084019160051b830101913683116101dc57602401905b828210610b4a57836024356001600160401b0381116101dc5761046391610b38610b3e923690600401610771565b90611da7565b60405191829182610a92565b602080918335610b59816101cb565b815201910190610b0a565b60403660031901126101dc57600435610b7c816101cb565b6024356001600160401b0381116101dc57610b9b9036906004016107e9565b610ba3612264565b805115610d2057610bb2612264565b610bba612b13565b6040516301ffc9a760e01b8152634063a51b60e11b60048201526001600160a01b0383169290602081602481875afa801561049057610c0191600091610cf1575b50612620565b604051630867884f60e41b8152602081600481875afa93841561049057610c577fd6f71decda5dca76d35578208fe361cbee0e75819cc58c233e843e05061a91bf600496602094600091610cd4575b50146126a1565b60405163035fe76360e11b815294859182905afa928315610490576108c093610c9491600091610ca5575b50600181119081610c99575b50612706565b612767565b60659150111538610c8e565b610cc7915060203d602011610ccd575b610cbf8183610734565b810190612692565b38610c82565b503d610cb5565b610ceb9150853d8711610ccd57610cbf8183610734565b38610c50565b610d13915060203d602011610d19575b610d0b8183610734565b81019061260b565b38610bfb565b503d610d01565b60405162461bcd60e51b815260206004820152602760248201527f5570677261646561626c65436f6e74726163743a20656d7074792075706772616044820152666465206461746160c81b6064820152608490fd5b346101dc5760203660031901126101dc57600435600052600080516020612f7a83398151915260205260206040600020541515604051908152f35b346101dc5760003660031901126101dc577f00000000000000000000000000000000000000000000000000000000000000006001600160a01b03163003610e09576020604051600080516020612f3a8339815191528152f35b63703e46dd60e11b60005260046000fd5b346101dc5760003660031901126101dc5760206040517fd6f71decda5dca76d35578208fe361cbee0e75819cc58c233e843e05061a91bf8152f35b346101dc5760003660031901126101dc576033546040516001600160a01b039091168152602090f35b801515036101dc57565b346101dc5760403660031901126101dc57600435610ea5816101cb565b602435610eb181610e7e565b6001600160a01b038216918215610f2557610ee690610ecf336114d0565b9060018060a01b0316600052602052604060002090565b9015159060ff1981541660ff83161790556040519081527f17307eab39ab6107e8899845ad3d59bd9653f200f220920489ca2b5937696c3160203392a3005b62ced3e160e81b600052600060045260246000fd5b346101dc5760003660031901126101dc5760405160355460009081610f5e826108c2565b80855291600181169081156109a55750600114610f85576104638461045781860382610734565b603581527fcfa4bec1d3298408bb5afcfcd9c430549c5b31f8aa5c5848151c0a55f473c34d939250905b808210610fc85750909150810160200161045782610938565b919260018160209254838588010152019101909291610faf565b346101dc5760203660031901126101dc576004356000526037602052602060018060a01b0360406000205416604051908152f35b60405190611025602083610734565b60008252565b346101dc5760003660031901126101dc57610463604080519061104e8183610734565b60058252640352e302e360dc1b602083015251918291602083526020830190610324565b346101dc5760003660031901126101dc5760405160345460009081611096826108c2565b80855291600181169081156109a557506001146110bd576104638461045781860382610734565b603481527f46bddb1178e94d7f2892ff5f366840eb658911794f2c3a44c450aa2c505186c1939250905b8082106111005750909150810160200161045782610938565b9192600181602092548385880101520191019092916110e7565b346101dc5760203660031901126101dc57600435600052600080516020612f7a8339815191526020526020604060002054604051908152f35b346101dc5760203660031901126101dc57600435611170816101cb565b603254611185906001600160a01b0316610398565b90813b156101dc576040516309a8745f60e01b815233600482015291600090839060249082905afa918215610490576104639261124f575b5061123f6111cc603854611e55565b916111d683603855565b6000838152603760205260409020546111f8906001600160a01b031615611e69565b61120c6001600160a01b0382161515611eac565b611220836000526037602052604060002090565b80546001600160a01b0319166001600160a01b03909216919091179055565b6040519081529081906020820190565b8061063f600061125e93610734565b386111bd565b346101dc5760003660031901126101dc576020603854604051908152f35b346101dc5760403660031901126101dc57602060ff6112bb6004356112a6816101cb565b610ecf602435916112b6836101cb565b6114d0565b54166040519015158152f35b346101dc5760a03660031901126101dc576004356112e4816101cb565b6024356112f0816101cb565b60443590606435926084356001600160401b0381116101dc576113179036906004016107e9565b926001600160a01b03821633811415806113ba575b6113a2576001600160a01b0384161561138c5715611377576108c09461136f60405192600184526020840152604083019160018352606084015260808301604052565b92909161247a565b626a0d4560e21b600052600060045260246000fd5b632bfa23e760e11b600052600060045260246000fd5b63711bec9160e11b6000523360045260245260446000fd5b506113c53384611eef565b1561132c565b346101dc576113d9366104d0565b906001600160a01b03831615611470576113f4821515611624565b6000818152600080516020612f5a833981519152602090815260408083206001600160a01b0387168452909152902082905410611434576108c0926122c3565b60405162461bcd60e51b8152602060048201526014602482015273496e73756666696369656e742062616c616e636560601b6044820152606490fd5b60405162461bcd60e51b815260206004820152600f60248201526e125b9d985b1a59081858d8dbdd5b9d608a1b6044820152606490fd5b346101dc5760003660031901126101dc576032546040516001600160a01b039091168152602090f35b6001600160a01b031660009081527f88be536d5240c274a3b1d3a1be54482fd9caa294f08c62a7cde569f49a3c45016020526040902090565b61153e91600052600080516020612f5a83398151915260205260406000209060018060a01b0316600052602052604060002090565b5490565b1561154957565b60405162461bcd60e51b815260206004820152601f60248201527f55524920717565727920666f72206e6f6e6578697374656e7420746f6b656e006044820152606490fd5b908160209103126101dc575161035a816101cb565b6040513d6000823e3d90fd5b6020818303126101dc578051906001600160401b0382116101dc570181601f820112156101dc5780516115e1816107ce565b926115ef6040519485610734565b818452602082840101116101dc5761035a9160208085019101610301565b9061162060209282815194859201610301565b0190565b1561162b57565b60405162461bcd60e51b815260206004820152601d60248201527f416d6f756e74206d7573742062652067726561746572207468616e20300000006044820152606490fd5b939291906001600160a01b03851633811415806116ab575b6113a2576001600160a01b0382161561138c5715611377576116a99461247a565b565b5060ff6116bb33610ecf896114d0565b541615611688565b92909391600080516020612fba83398151915254946001600160401b036117006116f360ff8960401c1615151590565b976001600160401b031690565b1680159081611822575b6001149081611818575b15908161180f575b506117fe57611761948661175860016001600160401b0319600080516020612fba833981519152541617600080516020612fba83398151915255565b6117c257611c1c565b61176757565b61179360ff60401b19600080516020612fba8339815191525416600080516020612fba83398151915255565b604051600181527fc7f505b2f371ae2175ee4913f4499e1f2633a7b5936321eed1cdaeb6115181d290602090a1565b6117f96801000000000000000060ff60401b19600080516020612fba833981519152541617600080516020612fba83398151915255565b611c1c565b63f92ee8a960e01b60005260046000fd5b9050153861171c565b303b159150611714565b87915061170a565b1561183157565b60405162461bcd60e51b815260206004820152600d60248201526c24b73b30b634b21037bbb732b960991b6044820152606490fd5b1561186d57565b60405162461bcd60e51b8152602060048201526013602482015272496e76616c69642061646472657373426f6f6b60681b6044820152606490fd5b601f81116118b4575050565b600080516020612fda8339815191526000526020600020906020601f840160051c830193106118fe575b601f0160051c01905b8181106118f2575050565b600081556001016118e7565b90915081906118de565b601f821161191557505050565b6000526020600020906020601f840160051c83019310611950575b601f0160051c01905b818110611944575050565b60008155600101611939565b9091508190611930565b9081516001600160401b038111610755576119818161197a6034546108c2565b6034611908565b602092601f82116001146119c3576119b3929382916000926119b8575b50508160011b916000199060031b1c19161790565b603455565b01519050388061199e565b6034600052601f198216937f46bddb1178e94d7f2892ff5f366840eb658911794f2c3a44c450aa2c505186c19160005b868110611a2a5750836001959610611a11575b505050811b01603455565b015160001960f88460031b161c19169055388080611a06565b919260206001819286850151815501940192016119f3565b9081516001600160401b03811161075557611a6981611a626035546108c2565b6035611908565b602092601f8211600114611a9f57611a9a929382916000926119b85750508160011b916000199060031b1c19161790565b603555565b6035600052601f198216937fcfa4bec1d3298408bb5afcfcd9c430549c5b31f8aa5c5848151c0a55f473c34d9160005b868110611b065750836001959610611aed575b505050811b01603555565b015160001960f88460031b161c19169055388080611ae2565b91926020600181928685015181550194019201611acf565b9081516001600160401b03811161075557611b4581611b3e6036546108c2565b6036611908565b602092601f8211600114611b7b57611b76929382916000926119b85750508160011b916000199060031b1c19161790565b603655565b6036600052601f198216937f4a11f94e20a93c79f6ec743a1954ec4fc2c08429ae2122118bf234b2185c81b89160005b868110611be25750836001959610611bc9575b505050811b01603655565b015160001960f88460031b161c19169055388080611bbe565b91926020600181928685015181550194019201611bab565b6001600160a01b03909116815260406020820181905261035a92910190610324565b91939092611cc592611cc09190611c9790611c416001600160a01b038816151561182a565b6001600160a01b0316611c55811515611866565b611c5d612136565b611c6d611c68611016565b61214e565b611c756125dd565b60018060a01b03166bffffffffffffffffffffffff60a01b6032541617603255565b603380546001600160a01b0319166001600160a01b038716179055611cbb8661195a565b611a42565b611b1e565b603254600490602090611ce0906001600160a01b0316610398565b6040516309ff78c360e41b815292839182905afa90811561049057600091611d59575b506001600160a01b031691823b156101dc57611d39926000928360405180968195829463ca79042960e01b845260048401611bfa565b03925af1801561049057611d4a5750565b8061063f60006116a993610734565b611d72915060203d6020116104bd576104af8183610734565b38611d03565b634e487b7160e01b600052603260045260246000fd5b8051821015611da25760209160051b010190565b611d78565b91909180518351808203611e28575050805190611dc38261075a565b91611dd16040519384610734565b808352611de0601f199161075a565b0136602084013760005b8151811015611e215780611e1060019260051b6020808287010151918901015190611509565b611e1a8286611d8e565b5201611dea565b5090925050565b635b05999160e01b60005260045260245260446000fd5b634e487b7160e01b600052601160045260246000fd5b6000198114611e645760010190565b611e3f565b15611e7057565b60405162461bcd60e51b8152602060048201526014602482015273546f6b656e20616c72656164792065786973747360601b6044820152606490fd5b15611eb357565b60405162461bcd60e51b8152602060048201526014602482015273496e76616c696420706f6f6c206164647265737360601b6044820152606490fd5b60ff91610ecf611efe926114d0565b541690565b6001600160a01b031680611f17602a611fac565b916030611f238461243f565b536078611f2f8461244c565b53611f3a6028612424565b60018111611f645750611f4b575090565b63e22e27eb60e01b600052600452601460245260446000fd5b90600f81166010811015611da257611fa791611fa1916f181899199a1a9b1b9c1cb0b131b232b360811b901a611f9a858861245c565b5360041c90565b9161246d565b611f3a565b90611fb6826107ce565b611fc36040519182610734565b8281528092611fd4601f19916107ce565b0190602036910137565b8060009172184f03e93ff9f4daa797ed6e38ed64bf6a1f0160401b821015612113575b806d04ee2d6d415b85acef8100000000600a9210156120f7575b662386f26fc100008110156120e2575b6305f5e1008110156120d0575b6127108110156120c0575b60648110156120b1575b10156120a6575b612091602161206560018501611fac565b938401015b60001901916f181899199a1a9b1b9c1cb0b131b232b360811b600a82061a8353600a900490565b80156120a157612091909161206a565b505090565b600190910190612054565b6002906064900493019261204d565b6004906127109004930192612043565b6008906305f5e1009004930192612038565b601090662386f26fc10000900493019261202b565b6020906d04ee2d6d415b85acef8100000000900493019261201b565b506040915072184f03e93ff9f4daa797ed6e38ed64bf6a1f0160401b8104612001565b61213e6125dd565b6121466125dd565b6116a96125dd565b906121576125dd565b81516001600160401b0381116107555761218881612183600080516020612fda833981519152546108c2565b6118a8565b602092601f82116001146121cb576121b9929382916000926119b85750508160011b916000199060031b1c19161790565b600080516020612fda83398151915255565b600080516020612fda833981519152600052601f198216937ff429cb5e2ec84cbb765e76b31964a56ccde03e7a6122d6cc4afb19edc55edeed9160005b86811061224c5750836001959610612233575b505050811b01600080516020612fda83398151915255565b015160001960f88460031b161c1916905538808061221b565b91926020600181928685015181550194019201612208565b6001600160a01b037f0000000000000000000000000000000000000000000000000000000000000000163081149081156122a0575b50610e0957565b600080516020612f3a833981519152546001600160a01b03161415905038612299565b92916001600160a01b03841615611377576122fb60405192600184526020840152604083019160018352606084015260808301604052565b600093919350602060006040516123128382610734565b526123208286600086612b62565b60005b855181101561241c576032546004908390612346906001600160a01b0316610398565b6040516309ff78c360e41b815292839182905afa908115610490576000916123ff575b506001600160a01b03169061237e8188611d8e565b519161238a8286611d8e565b5192813b156101dc576040516318ffb5b960e31b81526001600160a01b038816600482015260006024820181905260448201929092526064810194909452908390608490829084905af1918215610490576001926123ea575b5001612323565b8061063f60006123f993610734565b386123e3565b6124169150833d85116104bd576104af8183610734565b38612369565b505050509050565b9060018201809211611e6457565b91908201809211611e6457565b805115611da25760200190565b805160011015611da25760210190565b908151811015611da2570160200190565b8015611e64576000190190565b9291909461248a83838887612b62565b60005b8251811015612589576032546004906020906124b1906001600160a01b0316610398565b6040516309ff78c360e41b815292839182905afa9081156104905760009161256b575b506001600160a01b0316906124e98185611d8e565b51916124f58287611d8e565b5192813b156101dc576040516318ffb5b960e31b81526001600160a01b0389811660048301528b166024820152604481019190915260648101939093526000908390608490829084905af191821561049057600192612556575b500161248d565b8061063f600061256593610734565b3861254f565b612583915060203d81116104bd576104af8183610734565b386124d4565b509490939291906001600160a01b0381166125a6575b5050505050565b84516001036125cc576020806125c29601519201519233612a73565b388080808061259f565b6125d89491923361293e565b6125c2565b60ff600080516020612fba8339815191525460401c16156125fa57565b631afcd79f60e31b60005260046000fd5b908160209103126101dc575161035a81610e7e565b1561262757565b60405162461bcd60e51b815260206004820152603a60248201527f5570677261646561626c65436f6e74726163743a206e657720696d706c206e6f60448201527f742049556e6971756556657273696f6e6564436f6e74726163740000000000006064820152608490fd5b908160209103126101dc575190565b156126a857565b60405162461bcd60e51b815260206004820152603060248201527f5570677261646561626c65436f6e74726163743a20756e69717565436f6e747260448201526f6163744964206e6f7420657175616c7360801b6064820152608490fd5b1561270d57565b60405162461bcd60e51b815260206004820152602c60248201527f5570677261646561626c65436f6e74726163743a20696e76616c69642076657260448201526b73696f6e207570677261646560a01b6064820152608490fd5b6040516352d1902d60e01b81529091906020816004816001600160a01b0387165afa60009181612885575b506127b557634c9c8ce360e01b6000526001600160a01b03831660045260246000fd5b600080516020612f3a83398151915281036128715750813b1561284f57600080516020612f3a83398151915280546001600160a01b0319166001600160a01b0384169081179091557fbc7cd75a20ee27fd9adebab32041f755214dbc6bffa90cc0225b39da2e5c2d3b600080a28051156128355761283291612ca8565b50565b50503461283e57565b63b398979f60e01b60005260046000fd5b50634c9c8ce360e01b60009081526001600160a01b0391909116600452602490fd5b632a87526960e21b60005260045260246000fd5b61289f91925060203d602011610ccd57610cbf8183610734565b9038612792565b908160209103126101dc575161035a8161023f565b6001600160a01b0391821681529116602082015260a06040820181905261035a949193919261290092916128f29190860190610a5e565b908482036060860152610a5e565b916080818403910152610324565b3d15612939573d9061291f826107ce565b9161292d6040519384610734565b82523d6000602084013e565b606090565b9091949293853b612952575b505050505050565b60209361297491604051968795869563bc197c8160e01b8752600487016128bb565b038160006001600160a01b0387165af160009181612a09575b506129c9575061299b61290e565b80519190826129c257632bfa23e760e11b6000526001600160a01b03821660045260246000fd5b9050602001fd5b6001600160e01b0319166343e6837f60e01b016129ec575038808080808061294a565b632bfa23e760e11b6000526001600160a01b031660045260246000fd5b612a2c91925060203d602011612a33575b612a248183610734565b8101906128a6565b903861298d565b503d612a1a565b6001600160a01b039182168152911660208201526040810191909152606081019190915260a06080820181905261035a92910190610324565b9091949293853b612a8657505050505050565b602093612aa891604051968795869563f23a6e6160e01b875260048701612a3a565b038160006001600160a01b0387165af160009181612af2575b50612acf575061299b61290e565b6001600160e01b031916630dc5919f60e01b016129ec575038808080808061294a565b612b0c91925060203d602011612a3357612a248183610734565b9038612ac1565b6032546000906001600160a01b0316803b15612b5e57816024916040519283809263d58e836b60e01b82523360048301525afa801561049057612b54575050565b8161283291610734565b5080fd5b939293612b7185848484612ceb565b6001600160a01b031615612c10575b6001600160a01b031615612b9357509050565b6000805b8251821015612be4576001908260051b90612bd5602080848a0101519387010151600052600080516020612f7a833981519152602052604060002090565b82815403905501910190612b97565b9150506116a9919250600080516020612f9a8339815191525403600080516020612f9a83398151915255565b91600090815b8351831015612c7157612c696001918460051b90612c57602080848c0101519389010151600052600080516020612f7a833981519152602052604060002090565b612c62838254612432565b9055612432565b920191612c16565b612ca391949250612c9190600080516020612f9a83398151915254612432565b600080516020612f9a83398151915255565b612b80565b60008061035a93602081519101845af4612cc061290e565b91612ed8565b9091612cdd61035a93604084526040840190610a5e565b916020818403910152610a5e565b9392918051835190818103612ec157505060005b8151811015612e1b578060051b90602080838501015192860101518460018060a01b038916612d7e575b6001936001600160a01b038216612d44575b50505001612cff565b612d7491610ecf612d6c92600052600080516020612f5a833981519152602052604060002090565b918254612432565b9055388481612d3b565b509091612da688610ecf83600052600080516020612f5a833981519152602052604060002090565b54828110612de457829160019493879203612ddc8b610ecf84600052600080516020612f5a833981519152602052604060002090565b559350612d29565b6040516303dee4c560e01b81526001600160a01b038a16600482015260248101919091526044810183905260648101829052608490fd5b508051939493919291600103612e7e576020908101519181015160408051938452918301526001600160a01b03928316939092169133917fc3d58168c5ae7397731d063d5bbf3d657854427343f4c083240f7aacaa2d0f6291819081015b0390a4565b6040516001600160a01b03938416949093169233927f4a39dc06d4c0dbc64b70af90fd698a233a518aa5d07e595d983b8c0526c8f7fb928291612e799183612cc6565b635b05999160e01b60005260045260245260446000fd5b90612efe5750805115612eed57805190602001fd5b63d6bda27560e01b60005260046000fd5b81511580612f30575b612f0f575090565b639996b31560e01b60009081526001600160a01b0391909116600452602490fd5b50803b15612f0756fe360894a13ba1a3210667c828492db98dca3e2076cc3735a920a3ca505d382bbc88be536d5240c274a3b1d3a1be54482fd9caa294f08c62a7cde569f49a3c45004a593662ee04d27b6a00ebb31be7fe0c102c2ade82a7c5d764f2df05dc4e28004a593662ee04d27b6a00ebb31be7fe0c102c2ade82a7c5d764f2df05dc4e2801f0c57e16840df040f15088dc2f81fe391c3923bec73e23a9662efc9c229c6a0088be536d5240c274a3b1d3a1be54482fd9caa294f08c62a7cde569f49a3c4502a2646970667358221220f60947112c53e66c052f683fcfe452caafb499f2daf07866c90777477c65d18664736f6c634300081c0033",
  "devdoc": {
    "details": "Implements ERC1155 standard with upgradeable functionality",
    "errors": {
      "AddressEmptyCode(address)": [
        {
          "details": "There's no code at `target` (it is not a contract)."
        }
      ],
      "ERC1155InsufficientBalance(address,uint256,uint256,uint256)": [
        {
          "details": "Indicates an error related to the current `balance` of a `sender`. Used in transfers.",
          "params": {
            "balance": "Current balance for the interacting account.",
            "needed": "Minimum amount required to perform a transfer.",
            "sender": "Address whose tokens are being transferred.",
            "tokenId": "Identifier number of a token."
          }
        }
      ],
      "ERC1155InvalidApprover(address)": [
        {
          "details": "Indicates a failure with the `approver` of a token to be approved. Used in approvals.",
          "params": {
            "approver": "Address initiating an approval operation."
          }
        }
      ],
      "ERC1155InvalidArrayLength(uint256,uint256)": [
        {
          "details": "Indicates an array length mismatch between ids and values in a safeBatchTransferFrom operation. Used in batch transfers.",
          "params": {
            "idsLength": "Length of the array of token identifiers",
            "valuesLength": "Length of the array of token amounts"
          }
        }
      ],
      "ERC1155InvalidOperator(address)": [
        {
          "details": "Indicates a failure with the `operator` to be approved. Used in approvals.",
          "params": {
            "operator": "Address that may be allowed to operate on tokens without being their owner."
          }
        }
      ],
      "ERC1155InvalidReceiver(address)": [
        {
          "details": "Indicates a failure with the token `receiver`. Used in transfers.",
          "params": {
            "receiver": "Address to which tokens are being transferred."
          }
        }
      ],
      "ERC1155InvalidSender(address)": [
        {
          "details": "Indicates a failure with the token `sender`. Used in transfers.",
          "params": {
            "sender": "Address whose tokens are being transferred."
          }
        }
      ],
      "ERC1155MissingApprovalForAll(address,address)": [
        {
          "details": "Indicates a failure with the `operator`s approval. Used in transfers.",
          "params": {
            "operator": "Address that may be allowed to operate on tokens without being their owner.",
            "owner": "Address of the current owner of a token."
          }
        }
      ],
      "ERC1967InvalidImplementation(address)": [
        {
          "details": "The `implementation` of the proxy is invalid."
        }
      ],
      "ERC1967NonPayable()": [
        {
          "details": "An upgrade function sees `msg.value > 0` that may be lost."
        }
      ],
      "FailedCall()": [
        {
          "details": "A call to an address target failed. The target may have reverted."
        }
      ],
      "InvalidInitialization()": [
        {
          "details": "The contract is already initialized."
        }
      ],
      "NotInitializing()": [
        {
          "details": "The contract is not initializing."
        }
      ],
      "StringsInsufficientHexLength(uint256,uint256)": [
        {
          "details": "The `value` string doesn't fit in the specified `length`."
        }
      ],
      "UUPSUnauthorizedCallContext()": [
        {
          "details": "The call is from an unauthorized context."
        }
      ],
      "UUPSUnsupportedProxiableUUID(bytes32)": [
        {
          "details": "The storage `slot` is unsupported as a UUID."
        }
      ]
    },
    "events": {
      "ApprovalForAll(address,address,bool)": {
        "details": "Emitted when `account` grants or revokes permission to `operator` to transfer their tokens, according to `approved`."
      },
      "Initialized(uint64)": {
        "details": "Triggered when the contract has been initialized or reinitialized."
      },
      "TransferBatch(address,address,address,uint256[],uint256[])": {
        "details": "Equivalent to multiple {TransferSingle} events, where `operator`, `from` and `to` are the same for all transfers."
      },
      "TransferSingle(address,address,address,uint256,uint256)": {
        "details": "Emitted when `value` amount of tokens of type `id` are transferred from `from` to `to` by `operator`."
      },
      "URI(string,uint256)": {
        "details": "Emitted when the URI for token type `id` changes to `value`, if it is a non-programmatic URI. If an {URI} event was emitted for `id`, the standard https://eips.ethereum.org/EIPS/eip-1155#metadata-extensions[guarantees] that `value` will equal the value returned by {IERC1155MetadataURI-uri}."
      },
      "Upgraded(address)": {
        "details": "Emitted when the implementation is upgraded."
      }
    },
    "kind": "dev",
    "methods": {
      "balanceOf(address,uint256)": {
        "details": "See {IERC1155-balanceOf}."
      },
      "balanceOfBatch(address[],uint256[])": {
        "details": "See {IERC1155-balanceOfBatch}. Requirements: - `accounts` and `ids` must have the same length."
      },
      "burn(address,uint256,uint256)": {
        "details": "Can only be called by the associated pool",
        "params": {
          "account": "The address to burn tokens from",
          "amount": "The amount of tokens to burn",
          "tokenId": "The ID of the token to burn"
        }
      },
      "createToken(address)": {
        "details": "Can only be called by the factory address registered in AddressBook",
        "params": {
          "pool": "The address of the pool managing this token"
        },
        "returns": {
          "_0": "uint256 token id"
        }
      },
      "exists(uint256)": {
        "details": "Indicates whether any token exist with a given id, or not."
      },
      "initialize(address,address,string,string,string)": {
        "details": "Can only be called once",
        "params": {
          "initialAddressBook": "Address of the AddressBook contract"
        }
      },
      "isApprovedForAll(address,address)": {
        "details": "See {IERC1155-isApprovedForAll}."
      },
      "mint(address,uint256,uint256)": {
        "details": "Can only be called by the associated pool",
        "params": {
          "account": "The address to mint tokens to",
          "amount": "The amount of tokens to mint",
          "tokenId": "The ID of the token to mint"
        }
      },
      "proxiableUUID()": {
        "details": "Implementation of the ERC-1822 {proxiableUUID} function. This returns the storage slot used by the implementation. It is used to validate the implementation's compatibility when performing an upgrade. IMPORTANT: A proxy pointing at a proxiable contract should not be considered proxiable itself, because this risks bricking a proxy that upgrades to it, by delegating to itself until out of gas. Thus it is critical that this function revert if invoked through a proxy. This is guaranteed by the `notDelegated` modifier."
      },
      "safeBatchTransferFrom(address,address,uint256[],uint256[],bytes)": {
        "details": "See {IERC1155-safeBatchTransferFrom}."
      },
      "safeTransferFrom(address,address,uint256,uint256,bytes)": {
        "details": "See {IERC1155-safeTransferFrom}."
      },
      "setApprovalForAll(address,bool)": {
        "details": "See {IERC1155-setApprovalForAll}."
      },
      "totalSupply()": {
        "details": "Total value of tokens."
      },
      "totalSupply(uint256)": {
        "details": "Total value of tokens in with a given id."
      },
      "upgradeToAndCall(address,bytes)": {
        "details": "Upgrade the implementation of the proxy to `newImplementation`, and subsequently execute the function call encoded in `data`. Calls {_authorizeUpgrade}. Emits an {Upgraded} event."
      },
      "uri(uint256)": {
        "params": {
          "tokenId": "The ID of the token"
        },
        "returns": {
          "_0": "string The complete metadata URI for the token"
        }
      }
    },
    "title": "RWA Token Contract",
    "version": 1
  },
  "userdoc": {
    "kind": "user",
    "methods": {
      "addressBook()": {
        "notice": "Address book contract reference"
      },
      "burn(address,uint256,uint256)": {
        "notice": "Burns tokens"
      },
      "createToken(address)": {
        "notice": "Creates a new token with specified parameters"
      },
      "initialize(address,address,string,string,string)": {
        "notice": "Initializes the contract"
      },
      "mint(address,uint256,uint256)": {
        "notice": "Mints tokens"
      },
      "owner()": {
        "notice": "Owner address"
      },
      "pools(uint256)": {
        "notice": "Mapping of token ID to pool address"
      },
      "tokensLength()": {
        "notice": "Unique token ID amount"
      },
      "uri(uint256)": {
        "notice": "Gets the metadata URI for a specific token"
      }
    },
    "notice": "Contract for managing real world asset tokens",
    "version": 1
  },
  "storageLayout": {
    "storage": [
      {
        "astId": 20358,
        "contract": "contracts/rwa/RWA.sol:RWA",
        "label": "__gap",
        "offset": 0,
        "slot": "0",
        "type": "t_array(t_uint256)50_storage"
      },
      {
        "astId": 16212,
        "contract": "contracts/rwa/RWA.sol:RWA",
        "label": "addressBook",
        "offset": 0,
        "slot": "50",
        "type": "t_contract(AddressBook)17754"
      },
      {
        "astId": 16215,
        "contract": "contracts/rwa/RWA.sol:RWA",
        "label": "owner",
        "offset": 0,
        "slot": "51",
        "type": "t_address"
      },
      {
        "astId": 16217,
        "contract": "contracts/rwa/RWA.sol:RWA",
        "label": "entityId",
        "offset": 0,
        "slot": "52",
        "type": "t_string_storage"
      },
      {
        "astId": 16219,
        "contract": "contracts/rwa/RWA.sol:RWA",
        "label": "entityOwnerId",
        "offset": 0,
        "slot": "53",
        "type": "t_string_storage"
      },
      {
        "astId": 16221,
        "contract": "contracts/rwa/RWA.sol:RWA",
        "label": "entityOwnerType",
        "offset": 0,
        "slot": "54",
        "type": "t_string_storage"
      },
      {
        "astId": 16226,
        "contract": "contracts/rwa/RWA.sol:RWA",
        "label": "pools",
        "offset": 0,
        "slot": "55",
        "type": "t_mapping(t_uint256,t_address)"
      },
      {
        "astId": 16229,
        "contract": "contracts/rwa/RWA.sol:RWA",
        "label": "tokensLength",
        "offset": 0,
        "slot": "56",
        "type": "t_uint256"
      }
    ],
    "types": {
      "t_address": {
        "encoding": "inplace",
        "label": "address",
        "numberOfBytes": "20"
      },
      "t_array(t_uint256)50_storage": {
        "base": "t_uint256",
        "encoding": "inplace",
        "label": "uint256[50]",
        "numberOfBytes": "1600"
      },
      "t_contract(AddressBook)17754": {
        "encoding": "inplace",
        "label": "contract AddressBook",
        "numberOfBytes": "20"
      },
      "t_mapping(t_uint256,t_address)": {
        "encoding": "mapping",
        "key": "t_uint256",
        "label": "mapping(uint256 => address)",
        "numberOfBytes": "32",
        "value": "t_address"
      },
      "t_string_storage": {
        "encoding": "bytes",
        "label": "string",
        "numberOfBytes": "32"
      },
      "t_uint256": {
        "encoding": "inplace",
        "label": "uint256",
        "numberOfBytes": "32"
      }
    }
  }
}